:100000000C9476000C949E000C949E000C949E0020
:100010000C949E000C949E000C949E000C949E00E8
:100020000C949E000C949E000C949E000C949E00D8
:100030000C949E000C949E000C949E000C949E00C8
:100040000C948A030C949E000C94FA030C94D40331
:100050000C949E000C949E000C949E000C949E00A8
:100060000C949E000C949E0008000000BE9224494F
:10007000123EABAAAA2ABECDCCCC4C3E00000080DA
:10008000BEABAAAAAA3E00000000BF000000803F4D
:100090000000000000084178D3BB4387D1133D190D
:1000A0000E3CC3BD4282AD2B3E68EC8276BED98F3A
:1000B000E1A93E4C80EFFFBE01C4FF7F3F0000007E
:1000C000000007634236B79BD8A71A39685618AEA6
:1000D000BAAB558C1D3CB7CC5763BD6DEDFD753E7D
:1000E000F6177231BF000000803F600611241FBE6A
:1000F000CFEFD8E0DEBFCDBF22E0A8EBB1E001C07A
:100100001D92A236B207E1F711E0A0E0B1E0ECE603
:10011000F9E102C005900D92A83BB107D9F710E0B4
:10012000C6E7D0E004C02197FE010E94B30AC5379C
:10013000D107C9F70E942C040C94B40C0C94000055
:100140008E3008F08E508770806480937C008091A0
:100150007A00806480937A0080917A0086FDFCCFDB
:10016000809178009091790008953FB7F89480913C
:10017000B9019091BA01A091BB01B091BC0126B523
:10018000A89B05C02F3F19F00196A11DB11D3FBFCF
:10019000BA2FA92F982F8827BC01CD01620F711D9E
:1001A000811D911D42E0660F771F881F991F4A9598
:1001B000D1F70895AF92BF92CF92DF92EF92FF9264
:1001C0000F931F93CF93DF936C017B018B01040F7F
:1001D000151FEB015E01AE18BF08C017D10759F01B
:1001E0006991D601ED91FC910190F081E02DC6015D
:1001F0000995892B79F7C501DF91CF911F910F9157
:10020000FF90EF90DF90CF90BF90AF900895FC01EA
:10021000538D448D252F30E0842F90E0821B930B6B
:10022000541710F0CF96089501970895FC01918D11
:10023000828D981761F0A28DAE0FBF2FB11D5D9614
:100240008C91928D9F5F9F73928F90E008958FEFB6
:100250009FEF08952FB7F8948091BD019091BE0152
:10026000A091BF01B091C0012FBF8093C9019093AD
:10027000CA01A093CB01B093CC0181EC91E00E9424
:10028000160197FF26C02FB7F8948091BD01909179
:10029000BE01A091BF01B091C0012FBF4091C90123
:1002A0005091CA016091CB017091CC01841B950BD8
:1002B000A60BB70B4091C5015091C6016091C701D3
:1002C0007091C80184179507A607B707B0F28FEFA2
:1002D0009FEF0895FC01918D828D981731F0828DEA
:1002E000E80FF11D858D90E008958FEF9FEF089541
:1002F000FC01918D228D892F90E0805C9F4F821BA5
:1003000091098F739927089581EC91E00E947801FB
:1003100021E0892B09F420E0822F089580E090E00D
:10032000892B29F00E94840181110C94000008950A
:10033000FC01A48DA80FB92FB11DA35ABF4F2C915A
:10034000848D90E001968F739927848FA689B78951
:100350002C93A089B1898C91837080648C93938D48
:10036000848D981306C00288F389E02D80818F7DEB
:1003700080830895EF92FF920F931F93CF93DF93A3
:10038000EC0181E0888F9B8D8C8D98131AC0E889D1
:10039000F989808185FF15C09FB7F894EE89FF89A0
:1003A0006083E889F98980818370806480839FBF3E
:1003B00081E090E0DF91CF911F910F91FF90EF903E
:1003C0000895F62E0B8D10E00F5F1F4F0F7311274E
:1003D000E02E8C8D8E110CC00FB607FCFACFE88989
:1003E000F989808185FFF5CFCE010E949801F1CF78
:1003F000EB8DEC0FFD2FF11DE35AFF4FF0829FB7FD
:10040000F8940B8FEA89FB8980818062CFCFCF93EC
:10041000DF93EC01888D8823B9F0AA89BB89E8892C
:10042000F9898C9185FD03C0808186FD0DC00FB6D2
:1004300007FCF7CF8C9185FFF2CF808185FFEDCF50
:10044000CE010E949801E9CFDF91CF910895FC0180
:1004500001900020E9F73197AF01481B590BBC010F
:1004600081EC91E00C94DA008F929F92AF92BF9250
:100470000F931F93CF93DF93CDB7DEB7A1970FB63E
:10048000F894DEBF0FBECDBF19A2423008F44AE097
:100490008E010F5D1F4F842E912CB12CA12CA50134
:1004A00094010E94910AE62FB901CA01EA30F4F4DE
:1004B000E05DD801EE938D01232B242B252B79F7BA
:1004C00090E080E0109719F0CD010E942702A196DC
:1004D0000FB6F894DEBF0FBECDBFDF91CF911F9155
:1004E0000F91BF90AF909F908F900895E95CE1CFFE
:1004F000CF93DF930E942702EC0188E191E00E94F4
:1005000027028C0F9D1FDF91CF9108954F925F922C
:100510006F927F928F929F92AF92BF92CF92DF9213
:10052000EF92FF920F931F93CF936B017C01742E78
:10053000AC019B010E94A709882399F08BE191E00F
:10054000CF911F910F91FF90EF90DF90CF90BF90D0
:10055000AF909F908F907F906F905F904F900C9492
:10056000270246015701E894B7F82FEF3FEF4FE716
:100570005FE7C501B4010E94A70981110DC02FEFEB
:100580003FEF4FE75FE7C501B4010E9496061816DA
:100590001CF48FE191E0D4CF2FEF3FEF4FE75FE402
:1005A000C701B6010E94020918161CF483E291E00B
:1005B000C7CF2FEF3FEF4FE75FECC701B6010E94B7
:1005C000960687FDF3CF20E030E0A901C701B60110
:1005D0000E94960610E000E087FF0AC06DE281EC01
:1005E00091E00E94BA018C01F7FAF094F7F8F094C8
:1005F000C0E060E070E080E09FE37C1641F020E026
:1006000030E040E251E40E946108CF5FF6CFA701DD
:1006100096010E94F5072B013C010E94D3084B0173
:100620005C014AE00E9434027C01E00EF11ECC2302
:10063000C1F1C501B4010E949B069B01AC01C3013D
:10064000B2010E94F4074B015C016EE281EC91E083
:100650000E94BA01E80EF91EC15018F120E030E006
:1006600040E251E4C501B4010E94FC062B013C01AB
:100670000E94D3084B01B12CA12C4AE0C501B40162
:100680000E943402E80EF91EC501B4010E949B06C7
:100690009B01AC01C301B2010E94F4074B015C0154
:1006A000DBCFC701CF911F910F91FF90EF90DF90AB
:1006B000CF90BF90AF909F908F907F906F905F9002
:1006C0004F9008950F931F93CF93DF93EC01888190
:1006D0009981009759F02A813B812617370730F01E
:1006E00081E0DF91CF911F910F9108958B016F5F92
:1006F0007F4F0E94DE0B009759F0998388831B83FC
:100700000A832C813D81232B59F7FC011082E8CF0D
:1007100080E0E7CF1F920F920FB60F9211242F9314
:100720003F938F939F93AF93BF938091BD0190911F
:10073000BE01A091BF01B091C0013091B80123E08A
:10074000230F2D3758F50196A11DB11D2093B80137
:100750008093BD019093BE01A093BF01B093C001EF
:100760008091B9019091BA01A091BB01B091BC01F7
:100770000196A11DB11D8093B9019093BA01A09378
:10078000BB01B093BC01BF91AF919F918F913F91FD
:100790002F910F900FBE0F901F90189526E8230FF2
:1007A0000296A11DB11DD2CF1F920F920FB60F92CC
:1007B00011242F933F934F935F936F937F938F9366
:1007C0009F93AF93BF93EF93FF9381EC91E00E94CF
:1007D0009801FF91EF91BF91AF919F918F917F9180
:1007E0006F915F914F913F912F910F900FBE0F909E
:1007F0001F9018951F920F920FB60F9211242F93EE
:100800008F939F93EF93FF93E091D101F091D201E9
:100810008081E091D701F091D80182FD1BC09081C9
:100820008091DA018F5F8F732091DB01821741F095
:10083000E091DA01F0E0EF53FE4F958F8093DA01FB
:10084000FF91EF919F918F912F910F900FBE0F907D
:100850001F9018958081F4CFCF93DF93CDB7DEB78B
:100860002C970FB6F894DEBF0FBECDBF789484B539
:10087000826084BD84B5816084BD85B5826085BD9C
:1008800085B5816085BD80916E00816080936E002A
:10089000109281008091810082608093810080911C
:1008A00081008160809381008091800081608093CD
:1008B00080008091B10084608093B1008091B0008D
:1008C00081608093B00080917A00846080937A0088
:1008D00080917A00826080937A0080917A008160B2
:1008E00080937A0080917A00806880937A001092D9
:1008F000C100E091D101F091D20182E08083E091CA
:10090000CD01F091CE011082E091CF01F091D001A4
:100910008FEC80831092D901E091D501F091D6013E
:1009200086E08083E091D301F091D40180818061E1
:100930008083E091D301F091D4018081886080832D
:10094000E091D301F091D401808180688083E091AF
:10095000D301F091D40180818F7D808387E291E083
:100960000E94780200E010E081EC91E00E947801A2
:10097000181619060CF067C01A8219821C821B8295
:100980001E821D8270E060E0CE0101960E9462032B
:1009900029813A8181112FC02115310519F0C90132
:1009A0000E94550B1A8219821E821D821C821B8294
:1009B0000E942A01ED80FE8097FD25C08A309105B6
:1009C00011F18F8318862FEFE21AF20AB701CE01D8
:1009D00001960E946203882359F329813A818D810F
:1009E0009E81BE01695F7F4F820F931F0E94AD0CF5
:1009F000FE82ED82DDCF1E821D826AE171E0C901B7
:100A00000E94AD0CD5CFA980BA80A114B10429F001
:100A10006501E114F10409F01BC18D819E81892BD0
:100A200061F063E571E089819A810E94A40C892BB1
:100A300021F488E591E00E94780289819A810097EB
:100A400011F00E94550B82E10E94A000BC01990F99
:100A5000880B990B0E949D062AE038E240EA5BE38E
:100A60000E94FC069B01AC0160E070E080EA90E42B
:100A70000E94610820E030E040E85FE30E94F40754
:100A800020E030E048EC52E40E94FC0620E030E434
:100A90004CE156E40E9461080E940F0920E030EF0B
:100AA00047E555E40E9461082FE03FEC4BE55BE32E
:100AB0000E94F5079B01AC0160E070E080E89FE3D5
:100AC0000E94610823E333E948E853E40E94F407F5
:100AD0006B017C0183E10E94A000BC01990F880B8F
:100AE000990B0E949D064B015C012AE038E240EA26
:100AF0005BE30E94FC069B01AC0160E070E080EAD1
:100B000090E40E94610820E030E040E85FE30E944A
:100B1000F40720E030E048EC52E40E94FC069B0120
:100B2000AC0160E079ED88EF97E40E94610820E075
:100B300030E040EA5FE30E94570969877A878B8734
:100B40009C8720E030E048EC51E4C701B6010E94E8
:100B5000F4072FE632E143E85BEB0E94FC0620E05D
:100B600030E040E85FE30E94F5072B013C0120E004
:100B700030EC4FE754E4C501B4010E94610820E065
:100B800030E84BEB55E40E94FC069B01AC01C3012D
:100B9000B2010E94FC064B015C018BE791E00E94D0
:100BA000270242E0C701B6010E94860289E891E06F
:100BB0000E9427028DE891E00E94270242E06985A9
:100BC0007A858B859C850E94860280EA91E00E944E
:100BD000270285EA91E00E94270242E0C501B401A4
:100BE0000E94860285EB91E00E9478020E94B50087
:100BF0006B017C0188EE882E83E0982EA12CB12C0D
:100C00000E94B5006C197D098E099F09683E7340EA
:100C100081059105A8F321E0821A9108A108B10885
:100C200088EEC80E83E0D81EE11CF11C81149104EB
:100C3000A104B10429F70115110509F495CE0E940C
:100C40008401882309F490CE0E9400008DCE6401B7
:100C500046018FEF881A980AF6018081082E000C51
:100C6000990B0E948D06892B91F7F1E0EF1AF1089C
:100C7000EA0CFB1CF7018081082E000C990B0E94E6
:100C80008D06892B39F0EC14FD0420F0F1E0EF1A09
:100C9000F108F0CFA7014F5F5F4F4C195D095E83EC
:100CA0004D83AC14BD0420F4B601C5010E949B0C19
:100CB000E981FA818D819E81E80FF91F1082ADCE06
:100CC000E1ECF1E01382128288EE93E0A0E0B0E064
:100CD00084839583A683B7838AE091E091838083A0
:100CE00085EC90E09587848784EC90E097878687F1
:100CF00080EC90E0918B808B81EC90E0938B828BE9
:100D000082EC90E0958B848B86EC90E0978B868BC1
:100D1000118E128E138E148E089591110C94690702
:100D2000803219F089508550C8F708950E94D8067E
:100D300008F481E00895E89409C097FB3EF490958B
:100D40008095709561957F4F8F4F9F4F9923A9F0A4
:100D5000F92F96E9BB279395F69587957795679533
:100D6000B795F111F8CFFAF4BB0F11F460FF1BC077
:100D70006F5F7F4F8F4F9F4F16C0882311F096E90A
:100D800011C0772321F09EE8872F762F05C06623B8
:100D900071F096E8862F70E060E02AF09A95660F71
:100DA000771F881FDAF7880F9695879597F908952A
:100DB000990F0008550FAA0BE0E8FEEF161617066C
:100DC000E807F907C0F012161306E407F50798F0D4
:100DD000621B730B840B950B39F40A2661F0232BED
:100DE000242B252B21F408950A2609F4A140A69569
:100DF0008FEF811D811D08950E940F070C948307BA
:100E00000E94750738F00E947C0720F0952311F0AE
:100E10000C946C070C94720711240C94B7070E9471
:100E2000940770F3959FC1F3950F50E0551F629F93
:100E3000F001729FBB27F00DB11D639FAA27F00D33
:100E4000B11DAA1F649F6627B00DA11D661F829F5A
:100E50002227B00DA11D621F739FB00DA11D621F3F
:100E6000839FA00D611D221F749F3327A00D611D5C
:100E7000231F849F600D211D822F762F6A2F11243E
:100E80009F5750409AF0F1F088234AF0EE0FFF1F71
:100E9000BB1F661F771F881F91505040A9F79E3FC8
:100EA000510580F00C946C070C94B7075F3FE4F396
:100EB000983ED4F3869577956795B795F795E7951E
:100EC0009F5FC1F7FE2B880F911D9695879597F927
:100ED000089599278827089597F99F6780E870E01B
:100EE00060E008959FEF80EC089500240A941616A0
:100EF000170618060906089500240A941216130608
:100F0000140605060895092E0394000C11F4882395
:100F100052F0BB0F40F4BF2B11F460FF04C06F5FB1
:100F20007F4F8F4F9F4F089557FD9058440F551F87
:100F300059F05F3F71F04795880F97FB991F61F05B
:100F40009F3F79F087950895121613061406551FD2
:100F5000F2CF4695F1DF08C0161617061806991F3E
:100F6000F1CF86957105610508940895E894BB2733
:100F700066277727CB0197F908952F923F924F92DA
:100F80005F926F927F928F929F92AF92BF92CF9219
:100F9000DF92EF92FF920F931F93CF93DF93CDB722
:100FA000DEB7CA1BDB0B0FB6F894DEBF0FBECDBF9A
:100FB00009942A88398848885F846E847D848C846B
:100FC0009B84AA84B984C884DF80EE80FD800C8174
:100FD0001B81AA81B981CE0FD11D0FB6F894DEBF57
:100FE0000FBECDBFED0108955058BB27AA270E9420
:100FF0000C080C9483070E94750738F00E947C0748
:1010000020F039F49F3F19F426F40C9472070EF483
:10101000E095E7FB0C946C07E92F0E94940758F3C6
:10102000BA17620773078407950720F079F4A6F5CD
:101030000C94B6070EF4E0950B2EBA2FA02D0B01E1
:10104000B90190010C01CA01A0011124FF27591B0D
:1010500099F0593F50F4503E68F11A16F040A22F13
:10106000232F342F4427585FF3CF46953795279584
:10107000A795F0405395C9F77EF41F16BA0B620B83
:10108000730B840BBAF09150A1F0FF0FBB1F661FCA
:10109000771F881FC2F70EC0BA0F621F731F841F0D
:1010A00048F4879577956795B795F7959E3F08F033
:1010B000B0CF9395880F08F09927EE0F97958795F5
:1010C00008950E9475080C9483070E947C0758F0CD
:1010D0000E94750740F029F45F3F29F00C946C07DB
:1010E00051110C94B7070C9472070E94940768F38F
:1010F0009923B1F3552391F3951B550BBB27AA27D1
:1011000062177307840738F09F5F5F4F220F331F0A
:10111000441FAA1FA9F335D00E2E3AF0E0E832D0D2
:1011200091505040E695001CCAF72BD0FE2F29D0D5
:10113000660F771F881FBB1F261737074807AB07A7
:10114000B0E809F0BB0B802DBF01FF2793585F4F1C
:101150003AF09E3F510578F00C946C070C94B70759
:101160005F3FE4F3983ED4F3869577956795B795FE
:10117000F7959F5FC9F7880F911D9695879597F909
:101180000895E1E0660F771F881FBB1F6217730782
:101190008407BA0720F0621B730B840BBA0BEE1F97
:1011A00088F7E09508950E949C0788F09F5798F073
:1011B000B92F9927B751B0F0E1F0660F771F881F5C
:1011C000991F1AF0BA95C9F714C0B13091F00E9476
:1011D000B607B1E008950C94B607672F782F8827DB
:1011E000B85F39F0B93FCCF3869577956795B3959D
:1011F000D9F73EF490958095709561957F4F8F4F0C
:101200009F4F08950E94D80608F48FEF089516F0B6
:101210000C94E6090C94720768940C946C070E9475
:101220009C07A8F39923C1F3AEF3DF93CF931F93E9
:101230000F93FF92C92FDD2788232AF02197660F8D
:10124000771F881FDAF720E030E040E85FEB9FE38C
:10125000883920F0803E38F021968F770E94F5077C
:10126000E8E6F0E004C00E94F507E5E9F0E00E943E
:10127000F4098B01BE01EC01FB2E6F5771097595C6
:10128000771F880B990B0E949D0628E132E741E306
:101290005FE30E940F07AF2D9801AE01FF900F9101
:1012A0001F91CF91DF910E940C080C948307FA01E3
:1012B000EE0FFF1F309621053105A1F16115710573
:1012C00061F48038BFE39B0749F168949038810549
:1012D00061F08038BFEF9B0741F099234AF5FF3F4B
:1012E000E1053105210519F1E8940894E795D90144
:1012F000AA2329F4AB2FBE2FF85FD0F310C0FF5FF5
:1013000070F4A695E0F7F73950F019F0FF3A38F489
:101310009F779F930DD00F9007FC9058089546F04B
:101320000C94720760E070E080E89FE308954FE757
:101330009F775F934F933F932F930E940F092F91B5
:101340003F914F915F910E94FC060C94B4090E945A
:10135000D806880B990B089529F416F00C946C07A5
:101360000C94B6070C9472070E949C07A8F3963859
:10137000A0F707F80F92E8942BE33AEA48EB5FE70F
:101380000E9412070F920F920F924DB75EB70F9205
:101390000E945D0AE2ECF0E00E94F4094F915F9137
:1013A000EF91FF91E595EE1FFF1F49F0FE57E068B2
:1013B0004427EE0F441FFA95E1F74195550B0E9423
:1013C000270A0F9007FE0C941B0A08959F3F31F0E7
:1013D000915020F4879577956795B795880F911D63
:1013E0009695879597F90895DF93CF931F930F9361
:1013F000FF92EF92DF927B018C01689406C0DA2E97
:10140000EF010E940F07FE01E894A5912591359107
:1014100045915591A6F3EF010E940C08FE0197013A
:10142000A801DA9469F7DF90EF90FF900F911F9178
:10143000CF91DF9108959B01AC0160E070E080E8FE
:101440009FE30C9461080C946C070C94E6090E94CD
:101450009C07D8F39923C9F3940F511DA3F391501E
:10146000504094F059F0882332F0660F771F881FA0
:1014700091505040C1F79E3F51052CF7880F911DA8
:101480009695879597F908955F3FACF0983E9CF04C
:10149000BB27869577956795B79508F4B1609395C6
:1014A000C1F7BB0F58F711F460FFE8CF6F5F7F4FB4
:1014B0008F4F9F4FE3CF0C94B707FA01DC01AA0FBF
:1014C000BB1F9B01AC01BF5728F4222733274427B9
:1014D000507820C0B75190F4AB2F00244695379533
:1014E0002795011CA395D2F3002071F0220F331F22
:1014F000441FB395DAF30ED00C94F40761307105F4
:10150000A0E88A07B94630F49B01AC01662777272B
:1015100088279078309621F020833183428353834B
:101520000895A1E21A2EAA1BBB1BFD010DC0AA1F24
:10153000BB1FEE1FFF1FA217B307E407F50720F03C
:10154000A21BB30BE40BF50B661F771F881F991FB7
:101550001A9469F760957095809590959B01AC0100
:10156000BD01CF010895EE0FFF1F0590F491E02D0E
:1015700009940F931F93CF93DF938230910510F45A
:1015800082E090E0E0916002F091610230E020E0C2
:10159000B0E0A0E0309799F42115310509F44AC074
:1015A000281B390B24303105D8F58A819B816115C0
:1015B000710589F1FB0193838283FE0111C0408193
:1015C00051810281138148175907E0F048175907E4
:1015D00099F4109761F012960C93129713961C933E
:1015E0003296CF01DF91CF911F910F910895009313
:1015F000600210936102F4CF2115310551F04217BA
:10160000530738F0A901DB019A01BD01DF01F801A0
:10161000C1CFEF01F9CF9093610280936002CDCFEB
:10162000FE01E20FF31F8193919322503109398318
:101630002883D7CF20915E0230915F02232B41F4A3
:10164000209102013091030130935F0220935E02EA
:1016500020910001309101012115310541F42DB790
:101660003EB74091040150910501241B350BE091D8
:101670005E02F0915F02E217F307A0F42E1B3F0B0E
:101680002817390778F0AC014E5F5F4F24173507F4
:1016900048F04E0F5F1F50935F0240935E028193AC
:1016A00091939FCFF0E0E0E09CCFCF93DF93009742
:1016B000E9F0FC01329713821282A0916002B0918E
:1016C0006102ED0130E020E01097A1F4208131812A
:1016D000820F931F20915E0230915F022817390715
:1016E00009F061C0F0935F02E0935E02DF91CF9159
:1016F0000895EA01CE17DF07E8F54A815B819E0174
:1017000041155105B1F7E901FB83EA8349915991EC
:10171000C40FD51FEC17FD0761F4808191810296FB
:10172000840F951FE90199838883828193819B832C
:101730008A83F0E0E0E012968D919C9113970097D8
:10174000B9F52D913C911197CD010296820F931F0F
:1017500020915E0230915F022817390739F63097E1
:1017600051F51092610210926002B0935F02A09353
:101770005E02BCCFD383C28340815181840F951F09
:10178000C817D90761F44E5F5F4F88819981480F70
:10179000591F518340838A819B81938382832115C2
:1017A000310509F0B0CFF0936102E09360029ECF63
:1017B000FD01DC01C0CF13821282D7CFB0E0A0E0E0
:1017C000E4EEFBE00C94BF078C01009751F4CB01D1
:1017D0000E94B90A8C01C801CDB7DEB7E0E10C94D4
:1017E000DB07FC01E60FF71F9C0122503109E217CD
:1017F000F30708F49DC0D901CD91DC911197C6176C
:10180000D70798F0C530D10530F3CE01049786177D
:10181000970708F3C61BD70B2297C193D1936D93FB
:101820007C93CF010E94550BD6CF5B01AC1ABD0A49
:101830004C018C0E9D1EA0916002B0916102512C52
:10184000412CF12CE12C109731F580915E029091A2
:101850005F028815990509F05CC04616570608F026
:1018600058C08091000190910101009741F48DB71B
:101870009EB74091040150910501841B950BE81718
:10188000F90708F055C0F0935F02E0935E02F9019A
:1018900071836083A0CF8D919C91119712966C906B
:1018A000129713967C901397A815B90559F56C01FA
:1018B00042E0C40ED11CCA14DB0420F1AC014A1969
:1018C0005B09DA011296159780F062827382518368
:1018D0004083D9016D937C93E114F10471F0D70139
:1018E0001396FC93EE93129776CF22968C0F9D1F42
:1018F000F90191838083F301EFCFF0936102E093CC
:10190000600269CF4816590608F42C017D01D30105
:101910009ACFCB010E94B90A7C01009749F0AE0131
:10192000B8010E949B0CC8010E94550B870153CF40
:1019300010E000E050CFFB01DC0102C001900D92ED
:1019400041505040D8F70895FB01DC018D91019082
:1019500080190110D9F3990B0895FB01DC01019066
:0C1960000D920020E1F70895F894FFCFED
:10196C0000006202800000000000BA01DA000701EA
:10197C000702780116016A010D0A006E616E00699A
:10198C006E66006F766600417676696F206C6574C2
:10199C00747572612073656E736F726920284C7553
:1019AC0063652041352C2054656D70204134292EFF
:1019BC002E2E0050494E4700504F4E473A20436F51
:1019CC006D616E646F20726963657675746F2064E7
:1019DC00612041726475696E6F210054656D70658C
:1019EC007261747572613A2000202A430020207CB9
:1019FC0020204C756D696E6F73697461273A2000F5
:101A0C00204C75780020207C2020506F74656E7AF5
:081A1C0061273A200020570069
:00000001FF
