:100000000C9476000C949E000C949E000C949E0020
:100010000C949E000C949E000C949E000C949E00E8
:100020000C949E000C949E000C949E000C949E00D8
:100030000C949E000C949E000C949E000C949E00C8
:100040000C9411030C949E000C9481030C945B039C
:100050000C949E000C949E000C949E000C949E00A8
:100060000C949E000C949E0008000000BE9224494F
:10007000123EABAAAA2ABECDCCCC4C3E00000080DA
:10008000BEABAAAAAA3E00000000BF000000803F4D
:100090000000000000084178D3BB4387D1133D190D
:1000A0000E3CC3BD4282AD2B3E68EC8276BED98F3A
:1000B000E1A93E4C80EFFFBE01C4FF7F3F0000007E
:1000C000000007634236B79BD8A71A39685618AEA6
:1000D000BAAB558C1D3CB7CC5763BD6DEDFD753E7D
:1000E000F6177231BF000000803F0E0511241FBEBD
:1000F000CFEFD8E0DEBFCDBF11E0A0E0B1E0ECE48F
:10010000F2E102C005900D92A835B107D9F721E0C0
:10011000A8E5B1E001C01D92AE3FB207E1F710E0E3
:10012000C6E7D0E004C02197FE010E941E09C53732
:10013000D107C9F70E94B3030C9424090C94000062
:100140008E50806480937C0080917A0080648093DC
:100150007A0080917A0086FDFCCF809178009091A2
:10016000790008953FB7F89480915D0190915E0108
:10017000A0915F01B091600126B5A89B05C02F3FFB
:1001800019F00196A11DB11D3FBFBA2FA92F982FBD
:100190008827BC01CD01620F711D811D911D42E0B8
:1001A000660F771F881F991F4A95D1F70895AF9260
:1001B000BF92CF92DF92EF92FF920F931F93CF9354
:1001C000DF936C017B018B01040F151FEB015E01B6
:1001D000AE18BF08C017D10759F06991D601ED914B
:1001E000FC910190F081E02DC6010995892B79F7EA
:1001F000C501DF91CF911F910F91FF90EF90DF909C
:10020000CF90BF90AF900895FC01538D448D252F62
:1002100030E0842F90E0821B930B541710F0CF96A0
:10022000089501970895FC01918D828D981761F0D2
:10023000A28DAE0FBF2FB11D5D968C91928D9F5FE9
:100240009F73928F90E008958FEF9FEF0895FC01C8
:10025000918D828D981731F0828DE80FF11D858D7B
:1002600090E008958FEF9FEF0895FC01918D228D0E
:10027000892F90E0805C9F4F821B91098F73992793
:10028000089581E691E00E94350121E0892B09F46F
:1002900020E0822F089580E090E0892B29F00E94D1
:1002A000410181110C9400000895FC01A48DA80F58
:1002B000B92FB11DA35ABF4F2C91848D90E00196A8
:1002C0008F739927848FA689B7892C93A089B189C8
:1002D0008C91837080648C93938D848D981306C069
:1002E0000288F389E02D80818F7D80830895EF92CD
:1002F000FF920F931F93CF93DF93EC0181E0888FE0
:100300009B8D8C8D98131AC0E889F989808185FFAF
:1003100015C09FB7F894EE89FF896083E889F98951
:1003200080818370806480839FBF81E090E0DF9153
:10033000CF911F910F91FF90EF900895F62E0B8DA6
:1003400010E00F5F1F4F0F731127E02E8C8D8E1161
:100350000CC00FB607FCFACFE889F989808185FFC8
:10036000F5CFCE010E945501F1CFEB8DEC0FFD2FA3
:10037000F11DE35AFF4FF0829FB7F8940B8FEA8983
:10038000FB8980818062CFCFCF93DF93EC01888D92
:100390008823B9F0AA89BB89E889F9898C9185FD00
:1003A00003C0808186FD0DC00FB607FCF7CF8C918E
:1003B00085FFF2CF808185FFEDCFCE010E945501F0
:1003C000E9CFDF91CF910895FC0101900020E9F77A
:1003D0003197AF01481B590BBC0181E691E00C94A9
:1003E000D7008F929F92AF92BF920F931F93CF939C
:1003F000DF93CDB7DEB7A1970FB6F894DEBF0FBE7F
:10040000CDBF19A2423008F44AE08E010F5D1F4FA4
:10041000842E912CB12CA12CA50194010E94FC08E2
:10042000E62FB901CA01EA30F4F4E05DD801EE9399
:100430008D01232B242B252B79F790E080E010975A
:1004400019F0CD010E94E401A1960FB6F894DEBF29
:100450000FBECDBFDF91CF911F910F91BF90AF9095
:100460009F908F900895E95CE1CF4F925F926F92D9
:100470007F928F929F92AF92BF92CF92DF92EF9234
:10048000FF920F931F93CF936B017C01742EAC01ED
:100490009B010E941208882399F082E191E0CF919C
:1004A0001F910F91FF90EF90DF90CF90BF90AF9092
:1004B0009F908F907F906F905F904F900C94E4018D
:1004C00046015701E894B7F82FEF3FEF4FE75FE79A
:1004D000C501B4010E94120881110DC02FEF3FEF3A
:1004E0004FE75FE7C501B4010E94A80518161CF488
:1004F00086E191E0D4CF2FEF3FEF4FE75FE4C701F4
:10050000B6010E94000718161CF48AE191E0C7CFDB
:100510002FEF3FEF4FE75FECC701B6010E94A80540
:1005200087FDF3CF20E030E0A901C701B6010E94AA
:10053000A80510E000E087FF0AC06DE281E691E0C7
:100540000E9477018C01F7FAF094F7F8F094C0E07C
:1005500060E070E080E09FE37C1641F020E030E056
:1005600040E251E40E94AD05CF5FF6CFA7019601AE
:100570000E943C052B013C010E941F064B015C01BF
:100580004AE00E94F1017C01E00EF11ECC23C1F192
:10059000C501B4010E944E069B01AC01C301B2012A
:1005A0000E943B054B015C016EE281E691E00E94F6
:1005B0007701E80EF91EC15018F120E030E040E26A
:1005C00051E4C501B4010E9455072B013C010E9472
:1005D0001F064B01B12CA12C4AE0C501B4010E94B9
:1005E000F101E80EF91EC501B4010E944E069B01FF
:1005F000AC01C301B2010E943B054B015C01DBCFA2
:10060000C701CF911F910F91FF90EF90DF90CF9096
:10061000BF90AF909F908F907F906F905F904F9022
:1006200008951F920F920FB60F9211242F933F93AC
:100630008F939F93AF93BF938091590190915A01EB
:10064000A0915B01B0915C013091580123E0230F30
:100650002D3758F50196A11DB11D209358018093A7
:10066000590190935A01A0935B01B0935C01809172
:100670005D0190915E01A0915F01B09160010196D2
:10068000A11DB11D80935D0190935E01A0935F0158
:10069000B0936001BF91AF919F918F913F912F9146
:1006A0000F900FBE0F901F90189526E8230F02960B
:1006B000A11DB11DD2CF1F920F920FB60F92112420
:1006C0002F933F934F935F936F937F938F939F935A
:1006D000AF93BF93EF93FF9381E691E00E945501A2
:1006E000FF91EF91BF91AF919F918F917F916F910A
:1006F0005F914F913F912F910F900FBE0F901F90E0
:1007000018951F920F920FB60F9211242F938F936B
:100710009F93EF93FF93E0917101F09172018081BB
:10072000E0917701F091780182FD1BC0908180916A
:100730007A018F5F8F7320917B01821741F0E091E6
:100740007A01F0E0EF59FE4F958F80937A01FF9187
:10075000EF919F918F912F910F900FBE0F901F904F
:1007600018958081F4CF789484B5826084BD84B577
:10077000816084BD85B5826085BD85B5816085BD9C
:1007800080916E00816080936E0010928100809154
:1007900081008260809381008091810081608093DC
:1007A0008100809180008160809380008091B10001
:1007B00084608093B1008091B00081608093B0002C
:1007C00080917A00846080937A0080917A008260C0
:1007D00080937A0080917A00816080937A00809182
:1007E0007A00806880937A001092C100E0917101D4
:1007F000F091720182E08083E0916D01F0916E01D1
:100800001082E0916F01F09170018FEC8083109263
:100810007901E0917501F091760186E08083E091A5
:100820007301F0917401808180618083E091730194
:10083000F0917401808188608083E0917301F09170
:100840007401808180688083E0917301F09174016C
:1008500080818F7D80838EE191E00E94E40182E5BA
:1008600091E00E94E401C0E0D0E082E10E94A0009B
:10087000BC01990F880B990B0E9450062AE038E2C0
:1008800040EA5BE30E9455079B01AC0160E070E029
:1008900080EA90E40E94AD0520E030E040E85FE3AC
:1008A0000E943B0520E030E048EC52E40E945507EE
:1008B00020E030E44CE156E40E94AD050E940D07B3
:1008C00020E030EF47E555E40E94AD054B015C01A7
:1008D00083E10E94A000BC01990F880B990B0E9434
:1008E00050062AE038E240EA5BE30E9455079B018C
:1008F000AC0160E070E080EA90E40E94AD0520E089
:1009000030E040E85FE30E943B0520E030E048EC47
:1009100052E40E9455079B01AC0160E079ED88EF3D
:1009200097E40E94AD0520E030E040EA5FE30E94DA
:10093000C2072B013C018EE00E94A0007C012FE049
:100940003FEC4BE55BE3C501B4010E943C059B0114
:10095000AC0160E070E080E89FE30E94AD0523E316
:1009600033E948E853E40E943B0541E00E94350228
:1009700085E591E00E94E40140E0C301B2010E94DC
:10098000350285E591E00E94E401B701FF0C880B78
:10099000990B0E9450062AE038E240EA5BE30E948D
:1009A000550720E030E04BE954E40E94550743E04E
:1009B0000E94350283E591E00E94E4010E94B200AA
:1009C0004B015C0188EEC82E83E0D82EE12CF12C7F
:1009D0000E94B200681979098A099B09683E734030
:1009E00081059105A8F321E0C21AD108E108F108B8
:1009F00088EE880E83E0981EA11CB11CC114D1049E
:100A0000E104F10429F7209709F42FCF0E94410156
:100A1000882309F42ACF0E94000027CFE1E6F1E005
:100A20001382128288EE93E0A0E0B0E08483958385
:100A3000A683B78384E091E09183808385EC90E086
:100A40009587848784EC90E09787868780EC90E098
:100A5000918B808B81EC90E0938B828B82EC90E089
:100A6000958B848B86EC90E0978B868B118E128E03
:100A7000138E148E08955058BB27AA270E94530541
:100A80000C94C6060E94B80638F00E94BF0620F0FB
:100A900039F49F3F19F426F40C94B5060EF4E09552
:100AA000E7FB0C94AF06E92F0E94D70658F3BA175C
:100AB000620773078407950720F079F4A6F50C9474
:100AC000F9060EF4E0950B2EBA2FA02D0B01B901FB
:100AD00090010C01CA01A0011124FF27591B99F0B4
:100AE000593F50F4503E68F11A16F040A22F232FC0
:100AF000342F4427585FF3CF469537952795A79510
:100B0000F0405395C9F77EF41F16BA0B620B730BB6
:100B1000840BBAF09150A1F0FF0FBB1F661F771F27
:100B2000881FC2F70EC0BA0F621F731F841F48F4DC
:100B3000879577956795B795F7959E3F08F0B0CF65
:100B40009395880F08F09927EE0F9795879508954C
:100B50000E948B0608F481E008950E94C1050C9460
:100B6000C6060E94BF0658F00E94B80640F029F45D
:100B70005F3F29F00C94AF0651110C94FA060C94C7
:100B8000B5060E94D70668F39923B1F3552391F374
:100B9000951B550BBB27AA2762177307840738F0EC
:100BA0009F5F5F4F220F331F441FAA1FA9F335D049
:100BB0000E2E3AF0E0E832D091505040E695001CFD
:100BC000CAF72BD0FE2F29D0660F771F881FBB1FB7
:100BD000261737074807AB07B0E809F0BB0B802D95
:100BE000BF01FF2793585F4F3AF09E3F510578F0C1
:100BF0000C94AF060C94FA065F3FE4F3983ED4F3EE
:100C0000869577956795B795F7959F5FC9F7880F94
:100C1000911D9695879597F90895E1E0660F771FE6
:100C2000881FBB1F621773078407BA0720F0621B77
:100C3000730B840BBA0BEE1F88F7E09508950E94A2
:100C4000DF0688F09F5798F0B92F9927B751B0F079
:100C5000E1F0660F771F881F991F1AF0BA95C9F740
:100C600014C0B13091F00E94F906B1E008950C94DF
:100C7000F906672F782F8827B85F39F0B93FCCF392
:100C8000869577956795B395D9F73EF490958095BD
:100C9000709561957F4F8F4F9F4F0895E89409C0DD
:100CA00097FB3EF490958095709561957F4F8F4F9F
:100CB0009F4F9923A9F0F92F96E9BB279395F695B5
:100CC000879577956795B795F111F8CFFAF4BB0F33
:100CD00011F460FF1BC06F5F7F4F8F4F9F4F16C097
:100CE000882311F096E911C0772321F09EE8872F21
:100CF000762F05C0662371F096E8862F70E060E0DD
:100D00002AF09A95660F771F881FDAF7880F969555
:100D1000879597F90895990F0008550FAA0BE0E8F9
:100D2000FEEF16161706E807F907C0F012161306AD
:100D3000E407F50798F0621B730B840B950B39F4ED
:100D40000A2661F0232B242B252B21F408950A2653
:100D500009F4A140A6958FEF811D811D089597F993
:100D60009F6780E870E060E008959FEF80EC089551
:100D700000240A941616170618060906089500247A
:100D80000A9412161306140605060895092E0394F4
:100D9000000C11F4882352F0BB0F40F4BF2B11F468
:100DA00060FF04C06F5F7F4F8F4F9F4F089557FDC7
:100DB0009058440F551F59F05F3F71F04795880FC9
:100DC00097FB991F61F09F3F79F087950895121660
:100DD00013061406551FF2CF4695F1DF08C016160C
:100DE00017061806991FF1CF8695710561050894BD
:100DF0000895E894BB2766277727CB0197F90895D4
:100E00000E948B0608F48FEF089516F00C94510899
:100E10000C94B50668940C94AF060E94DF06A8F304
:100E20009923C1F3AEF3DF93CF931F930F93FF92F8
:100E3000C92FDD2788232AF02197660F771F881F87
:100E4000DAF720E030E040E85FEB9FE3883920F0FC
:100E5000803E38F021968F770E943C05E8E6F0E06E
:100E600004C00E943C05E5E9F0E00E945F088B01A8
:100E7000BE01EC01FB2E6F5771097595771F880B2A
:100E8000990B0E94500628E132E741E35FE30E949C
:100E90006807AF2D9801AE01FF900F911F91CF9180
:100EA000DF910E9453050C94C6060E9468070C94BB
:100EB000C6060E94B80638F00E94BF0620F09523AF
:100EC00011F00C94AF060C94B50611240C94FA069C
:100ED0000E94D70670F3959FC1F3950F50E0551F00
:100EE000629FF001729FBB27F00DB11D639FAA277F
:100EF000F00DB11DAA1F649F6627B00DA11D661FCE
:100F0000829F2227B00DA11D621F739FB00DA11DEE
:100F1000621F839FA00D611D221F749F3327A00DA8
:100F2000611D231F849F600D211D822F762F6A2F44
:100F300011249F5750409AF0F1F088234AF0EE0FA9
:100F4000FF1FBB1F661F771F881F91505040A9F7D6
:100F50009E3F510580F00C94AF060C94FA065F3F5B
:100F6000E4F3983ED4F3869577956795B795F79512
:100F7000E7959F5FC1F7FE2B880F911D969587958A
:100F800097F90895FA01EE0FFF1F309621053105FC
:100F9000A1F16115710561F48038BFE39B0749F148
:100FA00068949038810561F08038BFEF9B0741F06D
:100FB00099234AF5FF3FE1053105210519F1E89430
:100FC0000894E795D901AA2329F4AB2FBE2FF85F27
:100FD000D0F310C0FF5F70F4A695E0F7F73950F03A
:100FE00019F0FF3A38F49F779F930DD00F9007FCCC
:100FF0009058089546F00C94B50660E070E080E8E3
:101000009FE308954FE79F775F934F933F932F930D
:101010000E940D072F913F914F915F910E945507BC
:101020000C941F080E948B06880B990B089529F4D5
:1010300016F00C94AF060C94F9060C94B5060E94B9
:10104000DF06A8F39638A0F707F80F92E8942BE391
:101050003AEA48EB5FE70E946B070F920F920F92FC
:101060004DB75EB70F920E94C808E2ECF0E00E9414
:101070005F084F915F91EF91FF91E595EE1FFF1F84
:1010800049F0FE57E0684427EE0F441FFA95E1F758
:101090004195550B0E9492080F9007FE0C9486080C
:1010A00008959F3F31F0915020F48795779567958B
:1010B000B795880F911D9695879597F90895DF93B9
:1010C000CF931F930F93FF92EF92DF927B018C01DE
:1010D000689406C0DA2EEF010E946807FE01E894CA
:1010E000A5912591359145915591A6F3EF010E9467
:1010F0005305FE019701A801DA9469F7DF90EF909C
:10110000FF900F911F91CF91DF9108959B01AC014A
:1011100060E070E080E89FE30C94AD050C94AF06AE
:101120000C9451080E94DF06D8F39923C9F3940F59
:10113000511DA3F39150504094F059F0882332F0A0
:10114000660F771F881F91505040C1F79E3F510591
:101150002CF7880F911D9695879597F908955F3F15
:10116000ACF0983E9CF0BB27869577956795B79530
:1011700008F4B1609395C1F7BB0F58F711F460FF05
:10118000E8CF6F5F7F4F8F4F9F4FE3CF0C94FA06EE
:10119000FA01DC01AA0FBB1F9B01AC01BF5728F469
:1011A000222733274427507820C0B75190F4AB2F23
:1011B0000024469537952795011CA395D2F300206E
:1011C00071F0220F331F441FB395DAF30ED00C9445
:1011D0003B0561307105A0E88A07B94630F49B01F0
:1011E000AC016627772788279078309621F02083F6
:1011F0003183428353830895A1E21A2EAA1BBB1B9D
:10120000FD010DC0AA1FBB1FEE1FFF1FA217B307D2
:10121000E407F50720F0A21BB30BE40BF50B661FE8
:10122000771F881F991F1A9469F7609570958095AC
:1012300090959B01AC01BD01CF010895EE0FFF1FFA
:0C1240000590F491E02D0994F894FFCF84
:10124C00000000007701D7000401C401350113012F
:10125C0027016E616E00696E66006F7666004176DE
:10126C0076696F2073697374656D613A204C65748F
:10127C007475726120562C20492C205020726561A7
:10128C006C65202B2053656E736F726920416D6203
:08129C002E000D0A007C000089
:00000001FF
